:100000000C9435000C945D000C945D000C945D0024
:100010000C945D000C945D000C945D000C945D00EC
:100020000C945D000C945D000C945D000C945D00DC
:100030000C945D000C945D000C945D000C945D00CC
:100040000C9478000C945D000C94AA020C94DC02D1
:100050000C945D000C945D000C945D000C945D00AC
:100060000C945D000C945D000C0311241FBECFEFB7
:10007000D8E0DEBFCDBF11E0A0E0B1E0ECE1F9E0F7
:1000800002C005900D92A232B107D9F721E0A2E299
:10009000B1E001C01D92A83CB207E1F710E0CAE64A
:1000A000D0E004C02297FE010E948804C836D10720
:1000B000C9F70E9454040C948C040C94000026E0B0
:1000C00040E855E260E070E08BE291E00C94480279
:1000D0008EE00E9448014AE050E0BC018BE291E0D2
:1000E0000E943B0460E177E280E090E00C94E50040
:1000F0001F920F920FB60F9211242F933F938F935D
:100100009F93AF93BF938091230190912401A0917D
:100110002501B09126013091220123E0230F2D37D4
:1001200020F40196A11DB11D05C026E8230F0296FB
:10013000A11DB11D209322018093230190932401DE
:10014000A0932501B0932601809127019091280169
:10015000A0912901B0912A010196A11DB11D8093A2
:10016000270190932801A0932901B0932A01BF9100
:10017000AF919F918F913F912F910F900FBE0F9054
:100180001F9018953FB7F89480912701909128010E
:10019000A0912901B0912A0126B5A89B05C02F3F47
:1001A00019F00196A11DB11D3FBF6627782F892F39
:1001B0009A2F620F711D811D911D42E0660F771FFE
:1001C000881F991F4A95D1F70895CF92DF92EF9239
:1001D000FF92CF93DF936B017C010E94C200EB0181
:1001E000C114D104E104F10489F00E9463040E9467
:1001F000C2006C1B7D0B683E734090F381E0C81A0F
:10020000D108E108F108C851DC4FEACFDF91CF9166
:10021000FF90EF90DF90CF900895789484B582603E
:1002200084BD84B5816084BD85B5826085BD85B59A
:10023000816085BDEEE6F0E0808181608083E1E849
:10024000F0E0108280818260808380818160808381
:10025000E0E8F0E0808181608083E1EBF0E0808184
:1002600084608083E0EBF0E0808181608083EAE756
:10027000F0E08081846080838081826080838081DF
:10028000816080838081806880831092C10008959E
:100290008E3008F08E5087702091000190E4299FE5
:1002A00090011124822B80937C0080917A008064DD
:1002B00080937A0080917A0086FDFCCF809178004F
:1002C0002091790090E0922B0895FC01818D228D80
:1002D00090E0805C9F4F821B91098F73992708954E
:1002E000FC01918D828D981731F0828DE80FF11D00
:1002F000858D90E008958FEF9FEF0895FC01918D1B
:10030000828D981761F0828DDF01A80FB11D5D9677
:100310008C91928D9F5F9F73928F90E008958FEFE5
:100320009FEF089582E093E0892B49F080E090E010
:10033000892B29F00E94020381110C94000008957A
:10034000FC01848DDF01A80FB11DA35ABF4F2C9172
:10035000848D90E001968F739927848FA689B78941
:100360002C93A089B1898C9180648C93938D848D1A
:10037000981306C00288F389E02D80818F7D8083E9
:100380000895CF93DF93EC01888D8823C9F0EA8923
:10039000FB89808185FD05C0A889B9898C9186FD7E
:1003A0000FC00FB607FCF5CF808185FFF2CFA8897B
:1003B000B9898C9185FFEDCFCE010E94A001E7CFD6
:1003C000DF91CF910895CF92DF92FF920F931F9309
:1003D000CF93DF931F92CDB7DEB76C0181E0D601DA
:1003E00058968C9358975B969C915B975C968C91F2
:1003F0005C97981307C05096ED91FC9151978081BE
:1004000085FD2EC0F601038D10E00F5F1F4F0F73A7
:100410001127F02EF601848DF81211C00FB607FCDB
:10042000F9CFD6015096ED91FC915197808185FFCF
:10043000F1CFC60169830E94A0016981EBCF838D52
:10044000E80FF11DE35AFF4F6083D6015B960C93D2
:100450005B975296ED91FC915397808180620CC01E
:10046000D6015696ED91FC91579760835096ED9189
:10047000FC91519780818064808381E090E00F90AF
:10048000DF91CF911F910F91FF90DF90CF90089552
:10049000BF92CF92DF92EF92FF92CF93DF93EC0166
:1004A0006A017B01B22EE889F98982E080834115D7
:1004B00081EE580761057105A1F060E079E08DE3F8
:1004C00090E0A70196010E9464042150310941097E
:1004D00051095695479537952795211580E138079D
:1004E00098F0E889F989108260E874E88EE190E07C
:1004F000A70196010E946404215031094109510964
:100500005695479537952795EC85FD853083EE8583
:10051000FF852083188EEC89FD89B082EA89FB89EA
:10052000808180618083EA89FB8980818860808303
:10053000EA89FB89808180688083EA89FB898081E0
:100540008F7D8083DF91CF91FF90EF90DF90CF90F0
:10055000BF9008951F920F920FB60F9211242F9300
:100560008F939F93EF93FF93E0913B01F0913C01B8
:100570008081E0914101F091420182FD12C09081A1
:10058000809144018F5F8F7320914501821751F054
:10059000E0914401F0E0E55DFE4F958F80934401CA
:1005A00001C08081FF91EF919F918F912F910F90CA
:1005B0000FBE0F901F9018951F920F920FB60F92BB
:1005C00011242F933F934F935F936F937F938F9358
:1005D0009F93AF93BF93EF93FF938BE291E00E94C1
:1005E000A001FF91EF91BF91AF919F918F917F916A
:1005F0006F915F914F913F912F910F900FBE0F9090
:100600001F9018958BE291E00E94650121E0892BF3
:1006100009F420E0822F089510922E0110922D01EE
:1006200088EE93E0A0E0B0E080932F01909330013A
:10063000A0933101B093320185E091E090932C01B9
:1006400080932B0185EC90E09093380180933701E3
:1006500084EC90E090933A018093390180EC90E033
:1006600090933C0180933B0181EC90E090933E019C
:1006700080933D0182EC90E09093400180933F0194
:1006800086EC90E0909342018093410110924401E6
:100690001092450110924601109247010895CF92A1
:1006A000DF92EF92FF920F931F93CF93DF937C0122
:1006B0006A01EB0100E010E00C151D0571F0699175
:1006C000D701ED91FC910190F081E02DC7010995D2
:1006D000892B19F00F5F1F4FEFCFC801DF91CF912A
:1006E0001F910F91FF90EF90DF90CF9008956115CB
:1006F000710581F0DB010D900020E9F7AD0141505B
:100700005109461B570BDC01ED91FC910280F381EE
:10071000E02D099480E090E00895DC01ED91FC91DA
:100720000190F081E02D099461E171E00C94770370
:100730008F929F92AF92BF92CF92DF92EF92FF92F1
:100740000F931F93CF93DF93CDB7DEB7A1970FB66B
:10075000F894DEBF0FBECDBF7C01C42EE52FCB01C8
:10076000D22E19A221E02D1510F02AE0D22E8E01F2
:100770000F5D1F4F8D2C912CA12CB12C6C2D7E2F39
:10078000A50194010E9464048C2DD29E801911242D
:10079000015011098A3014F4805D01C0895CF801B0
:1007A0008083211531054105510521F0C22EE32F2B
:1007B000CA01E4CFB801C7010E947703A1960FB622
:1007C000F894DEBF0FBECDBFDF91CF911F910F9187
:1007D000FF90EF90DF90CF90BF90AF909F908F9061
:1007E0000895CF92DF92EF92FF920F931F93CF93D2
:1007F000DF93EC016A017B012115310579F4E88171
:10080000F9810190F081E02D642FDF91CF911F914C
:100810000F91FF90EF90DF90CF9009942A3031052F
:10082000E9F477FF1AC06DE20E948D038C01442722
:100830005527BA014C195D096E097F092AE0CE01DE
:100840000E949803800F911FDF91CF911F910F910C
:10085000FF90EF90DF90CF9008952AE0B701A601B6
:10086000CE01DF91CF911F910F91FF90EF90DF901C
:10087000CF900C9498030F931F93CF93DF93EC01C9
:100880009A01AB01662757FD6095762F0E94F10310
:100890008C01CE010E949403800F911FDF91CF91B4
:1008A0001F910F91089508950E940D010E94530415
:1008B0000E945F00C2E9D1E00E9468002097E1F346
:1008C0000E949201F9CF0895A1E21A2EAA1BBB1B28
:1008D000FD010DC0AA1FBB1FEE1FFF1FA217B3070C
:1008E000E407F50720F0A21BB30BE40BF50B661F22
:1008F000771F881F991F1A9469F7609570958095E6
:1009000090959B01AC01BD01CF010895EE0FFF1F33
:0C0910000590F491E02D0994F894FFCFBD
:10091C000100000000E3014F0365017E017001C17D
:10092C00010D0A006E616E00696E66006F766600DE
:02093C002E008B
:00000001FF
